{
  "transactions": [
    {
      "hash": "0x42f2a79b6b560595a37e489bdbbfd65e99aec38015587bc63ce25976950dff5b",
      "transactionType": "CALL",
      "contractName": null,
      "contractAddress": "0xe18a45ee9e297e3fe1948b4b67e754d691936552",
      "function": "actionByNftOwner(address,string,string,string,string,string)",
      "arguments": [
        "0x0ecE60ba8131f92edDF9BaC35aEd6c2EBaE95713",
        "TechSauceV99.GlobalSummit2024",
        "1",
        "attend_stage",
        "342",
        "[{\\\"name\\\":\\\"stage\\\",\\\"value\\\":\\\"stage_2\\\"}]"
      ],
      "transaction": {
        "from": "0xb62ef83643a2f8c95df78f694c6bf480f5b786f2",
        "to": "0xe18a45ee9e297e3fe1948b4b67e754d691936552",
        "gas": "0xff88",
        "value": "0x0",
        "input": "0xd31a061b0000000000000000000000000ece60ba8131f92eddf9bac35aed6c2ebae9571300000000000000000000000000000000000000000000000000000000000000c000000000000000000000000000000000000000000000000000000000000001000000000000000000000000000000000000000000000000000000000000000140000000000000000000000000000000000000000000000000000000000000018000000000000000000000000000000000000000000000000000000000000001c0000000000000000000000000000000000000000000000000000000000000001d5465636853617563655639392e476c6f62616c53756d6d69743230323400000000000000000000000000000000000000000000000000000000000000000000013100000000000000000000000000000000000000000000000000000000000000000000000000000000000000000000000000000000000000000000000000000c617474656e645f737461676500000000000000000000000000000000000000000000000000000000000000000000000000000000000000000000000000000003333432000000000000000000000000000000000000000000000000000000000000000000000000000000000000000000000000000000000000000000000000245b7b226e616d65223a227374616765222c2276616c7565223a2273746167655f32227d5d00000000000000000000000000000000000000000000000000000000",
        "nonce": "0x156",
        "chainId": "0x62"
      },
      "additionalContracts": [],
      "isFixedGasLimit": false
    }
  ],
  "receipts": [
    {
      "status": "0x1",
      "cumulativeGasUsed": "0xe90b",
      "logs": [
        {
          "address": "0xe18a45ee9e297e3fe1948b4b67e754d691936552",
          "topics": [
            "0x0dd39d88083c80ab56b145e03be3901e5aae82f8fe88c5b2ba19994e83e7afe0",
            "0x62630521944b427e5cc9e51f09665b23960a8a09e2cc3e9cfbcb2dd814465822",
            "0xc89efdaa54c0f20c7adf612882df0950f5a951637e0307cdcb4c672f298b8bc6"
          ],
          "data": "0x000000000000000000000000000000000000000000000000000000000000006000000000000000000000000000000000000000000000000000000000000000a000000000000000000000000000000000000000000000000000000000000000e0000000000000000000000000000000000000000000000000000000000000000c617474656e645f737461676500000000000000000000000000000000000000000000000000000000000000000000000000000000000000000000000000000003333432000000000000000000000000000000000000000000000000000000000000000000000000000000000000000000000000000000000000000000000000245b7b226e616d65223a227374616765222c2276616c7565223a2273746167655f32227d5d00000000000000000000000000000000000000000000000000000000",
          "blockHash": "0xa144fa98518f501507f16f3fbfc4e1ff8400e3f7191e3bfa3b5a058090e7650f",
          "blockNumber": "0xb2f4fd",
          "transactionHash": "0x42f2a79b6b560595a37e489bdbbfd65e99aec38015587bc63ce25976950dff5b",
          "transactionIndex": "0x0",
          "logIndex": "0x0",
          "removed": false
        }
      ],
      "logsBloom": "0x00000000000000000000000000000000000000000000000000000000000000000000000000000000000000000000000000000000000000001000000000000000000000000000000000000000000000000000000000000000000000000000000020000000000000000000400000000000000200000000000040000000000000000000000000000000000000000000000000000000002000000000000000000000000080000000000000000000000000000000000000000000200000000000000000000008000000000000000000000000000000000000000000000000000000000000000008000000001000000000000000000000000008000000000000000000",
      "type": "0x2",
      "transactionHash": "0x42f2a79b6b560595a37e489bdbbfd65e99aec38015587bc63ce25976950dff5b",
      "transactionIndex": "0x0",
      "blockHash": "0xa144fa98518f501507f16f3fbfc4e1ff8400e3f7191e3bfa3b5a058090e7650f",
      "blockNumber": "0xb2f4fd",
      "gasUsed": "0xe90b",
      "effectiveGasPrice": "0x640b5eece00",
      "from": "0xb62ef83643a2f8c95df78f694c6bf480f5b786f2",
      "to": "0xe18a45ee9e297e3fe1948b4b67e754d691936552",
      "contractAddress": null
    }
  ],
  "libraries": [],
  "pending": [],
  "returns": {},
  "timestamp": 1728476524,
  "chain": 98,
  "commit": "9a2df8a"
}