{
  "transactions": [
    {
      "hash": "0x1dd9c8417affd11ed2b5ec96c1cde256f0411e6d8adacaad71283f5160ed5a7b",
      "transactionType": "CALL",
      "contractName": null,
      "contractAddress": "0x0000000000000000000000000000000000001069",
      "function": "transferToCosmos(string,uint256)",
      "arguments": [
        "6x1kch0sdjr5tuvjh0h3a55c6l5sr6m0phjeag9f2",
        "5000000000000000000"
      ],
      "transaction": {
        "from": "0xb62ef83643a2f8c95df78f694c6bf480f5b786f2",
        "to": "0x0000000000000000000000000000000000001069",
        "gas": "0x7846",
        "value": "0x0",
        "input": "0x42cd26d300000000000000000000000000000000000000000000000000000000000000400000000000000000000000000000000000000000000000004563918244f4000000000000000000000000000000000000000000000000000000000000000000293678316b63683073646a72357475766a6830683361353563366c357372366d3070686a6561673966320000000000000000000000000000000000000000000000",
        "nonce": "0x14e",
        "chainId": "0x62"
      },
      "additionalContracts": [],
      "isFixedGasLimit": false
    }
  ],
  "receipts": [
    {
      "status": "0x1",
      "cumulativeGasUsed": "0x71a4",
      "logs": [],
      "logsBloom": "0x00000000000000000000000000000000000000000000000000000000000000000000000000000000000000000000000000000000000000000000000000000000000000000000000000000000000000000000000000000000000000000000000000000000000000000000000000000000000000000000000000000000000000000000000000000000000000000000000000000000000000000000000000000000000000000000000000000000000000000000000000000000000000000000000000000000000000000000000000000000000000000000000000000000000000000000000000000000000000000000000000000000000000000000000000000000",
      "type": "0x2",
      "transactionHash": "0x1dd9c8417affd11ed2b5ec96c1cde256f0411e6d8adacaad71283f5160ed5a7b",
      "transactionIndex": "0x0",
      "blockHash": "0x11cb2fe4124cfefdad494705ab7062feb72cccc78638e91ec12822885fe8eda8",
      "blockNumber": "0xb2f43e",
      "gasUsed": "0x71a4",
      "effectiveGasPrice": "0x48c27395001",
      "from": "0xb62ef83643a2f8c95df78f694c6bf480f5b786f2",
      "to": "0x0000000000000000000000000000000000001069",
      "contractAddress": null
    }
  ],
  "libraries": [],
  "pending": [],
  "returns": {},
  "timestamp": 1728475291,
  "chain": 98,
  "commit": "9a2df8a"
}