{
  "transactions": [
    {
      "hash": "0x528e7ff70669cf2249a7b44f25ec209802f9aff3eee5cd63eb6a6be7c917a7c4",
      "transactionType": "CALL",
      "contractName": null,
      "contractAddress": "0x0000000000000000000000000000000000001055",
      "function": "addActionExecutor(string,address)",
      "arguments": [
        "TechSauceV99.GlobalSummit2024",
        "0xE18A45EE9e297e3fe1948B4B67E754d691936552"
      ],
      "transaction": {
        "from": "0xb62ef83643a2f8c95df78f694c6bf480f5b786f2",
        "to": "0x0000000000000000000000000000000000001055",
        "gas": "0x77b6",
        "value": "0x0",
        "input": "0x470920c50000000000000000000000000000000000000000000000000000000000000040000000000000000000000000e18a45ee9e297e3fe1948b4b67e754d691936552000000000000000000000000000000000000000000000000000000000000001d5465636853617563655639392e476c6f62616c53756d6d697432303234000000",
        "nonce": "0x835",
        "chainId": "0x96"
      },
      "additionalContracts": [],
      "isFixedGasLimit": false
    }
  ],
  "receipts": [
    {
      "status": "0x1",
      "cumulativeGasUsed": "0x5c14",
      "logs": [],
      "logsBloom": "0x00000000000000000000000000000000000000000000000000000000000000000000000000000000000000000000000000000000000000000000000000000000000000000000000000000000000000000000000000000000000000000000000000000000000000000000000000000000000000000000000000000000000000000000000000000000000000000000000000000000000000000000000000000000000000000000000000000000000000000000000000000000000000000000000000000000000000000000000000000000000000000000000000000000000000000000000000000000000000000000000000000000000000000000000000000000",
      "type": "0x2",
      "transactionHash": "0x528e7ff70669cf2249a7b44f25ec209802f9aff3eee5cd63eb6a6be7c917a7c4",
      "transactionIndex": "0x0",
      "blockHash": "0xefba206f405432aad317c1de1afa02a6b6b4a6e1309ebf5621a047ded899d4b9",
      "blockNumber": "0x9e499f",
      "gasUsed": "0x5c14",
      "effectiveGasPrice": "0x48c27395001",
      "from": "0xb62ef83643a2f8c95df78f694c6bf480f5b786f2",
      "to": "0x0000000000000000000000000000000000001055",
      "contractAddress": null
    }
  ],
  "libraries": [],
  "pending": [],
  "returns": {},
  "timestamp": 1728474106,
  "chain": 150,
  "commit": "9a2df8a"
}