{
  "transactions": [
    {
      "hash": "0x4e5c9510f6c0d65fd72c8460e70adf807262394fa14b1a22b49f1362e06edb78",
      "transactionType": "CALL",
      "contractName": null,
      "contractAddress": "0x0000000000000000000000000000000000001055",
      "function": "addActionExecutor(string,address)",
      "arguments": [
        "TechSauceV99.GlobalSummit2024",
        "0xE18A45EE9e297e3fe1948B4B67E754d691936552"
      ],
      "transaction": {
        "from": "0xb62ef83643a2f8c95df78f694c6bf480f5b786f2",
        "to": "0x0000000000000000000000000000000000001055",
        "gas": "0x77b6",
        "value": "0x0",
        "input": "0x470920c50000000000000000000000000000000000000000000000000000000000000040000000000000000000000000e18a45ee9e297e3fe1948b4b67e754d691936552000000000000000000000000000000000000000000000000000000000000001d5465636853617563655639392e476c6f62616c53756d6d697432303234000000",
        "nonce": "0x155",
        "chainId": "0x62"
      },
      "additionalContracts": [],
      "isFixedGasLimit": false
    }
  ],
  "receipts": [
    {
      "status": "0x1",
      "cumulativeGasUsed": "0x5c14",
      "logs": [],
      "logsBloom": "0x00000000000000000000000000000000000000000000000000000000000000000000000000000000000000000000000000000000000000000000000000000000000000000000000000000000000000000000000000000000000000000000000000000000000000000000000000000000000000000000000000000000000000000000000000000000000000000000000000000000000000000000000000000000000000000000000000000000000000000000000000000000000000000000000000000000000000000000000000000000000000000000000000000000000000000000000000000000000000000000000000000000000000000000000000000000",
      "type": "0x2",
      "transactionHash": "0x4e5c9510f6c0d65fd72c8460e70adf807262394fa14b1a22b49f1362e06edb78",
      "transactionIndex": "0x0",
      "blockHash": "0x4d37c67ac4169181f5522cfcffecfc0cfb221e2f58fb847a039d4617331433e2",
      "blockNumber": "0xb2f4f8",
      "gasUsed": "0x5c14",
      "effectiveGasPrice": "0x640b5eece00",
      "from": "0xb62ef83643a2f8c95df78f694c6bf480f5b786f2",
      "to": "0x0000000000000000000000000000000000001055",
      "contractAddress": null
    }
  ],
  "libraries": [],
  "pending": [],
  "returns": {},
  "timestamp": 1728476494,
  "chain": 98,
  "commit": "9a2df8a"
}