{
  "transactions": [
    {
      "hash": "0x2e39ff30aedb01f8c5c5a01b44274f4efa27b0f42cbc970cdb5f71ffa8139597",
      "transactionType": "CALL",
      "contractName": null,
      "contractAddress": "0x0000000000000000000000000000000000001069",
      "function": "transferToCosmos(string,uint256)",
      "arguments": [
        "6x1kch0sdjr5tuvjh0h3a55c6l5sr6m0phjeag9f2",
        "5000000000000000000"
      ],
      "transaction": {
        "from": "0xb62ef83643a2f8c95df78f694c6bf480f5b786f2",
        "to": "0x0000000000000000000000000000000000001069",
        "gas": "0x7846",
        "value": "0x0",
        "input": "0x42cd26d300000000000000000000000000000000000000000000000000000000000000400000000000000000000000000000000000000000000000004563918244f4000000000000000000000000000000000000000000000000000000000000000000293678316b63683073646a72357475766a6830683361353563366c357372366d3070686a6561673966320000000000000000000000000000000000000000000000",
        "nonce": "0x833",
        "chainId": "0x96"
      },
      "additionalContracts": [],
      "isFixedGasLimit": false
    }
  ],
  "receipts": [
    {
      "status": "0x1",
      "cumulativeGasUsed": "0x71a4",
      "logs": [],
      "logsBloom": "0x00000000000000000000000000000000000000000000000000000000000000000000000000000000000000000000000000000000000000000000000000000000000000000000000000000000000000000000000000000000000000000000000000000000000000000000000000000000000000000000000000000000000000000000000000000000000000000000000000000000000000000000000000000000000000000000000000000000000000000000000000000000000000000000000000000000000000000000000000000000000000000000000000000000000000000000000000000000000000000000000000000000000000000000000000000000",
      "type": "0x2",
      "transactionHash": "0x2e39ff30aedb01f8c5c5a01b44274f4efa27b0f42cbc970cdb5f71ffa8139597",
      "transactionIndex": "0x0",
      "blockHash": "0x0714ebe0e22cdd57f276d92bd6ff2864d7b1e11ece019dcf7480f2847c67c677",
      "blockNumber": "0x9e4989",
      "gasUsed": "0x71a4",
      "effectiveGasPrice": "0x640b5eece00",
      "from": "0xb62ef83643a2f8c95df78f694c6bf480f5b786f2",
      "to": "0x0000000000000000000000000000000000001069",
      "contractAddress": null
    }
  ],
  "libraries": [],
  "pending": [],
  "returns": {},
  "timestamp": 1728473967,
  "chain": 150,
  "commit": "9a2df8a"
}